:020000040800F2
:10000000005000206D2800085D26000865260008C5
:100010006D260008752600087D26000800000000F7
:10002000000000000000000000000000852600081D
:1000300091260008000000009D260008A92600085F
:10004000B5280008B5280008B5280008B52800081C
:10005000B5280008B5280008B5280008B52800080C
:10006000B5280008B5280008B5280008B5280008FC
:10007000B5280008B5280008B5280008B5280008EC
:10008000B5280008B5280008B5280008B5280008DC
:10009000B5280008B5280008B5280008B5280008CC
:1000A000B5280008B5280008B5280008B5280008BC
:1000B000B5280008B5260008B5280008B5280008AE
:1000C000B5280008B5280008B5280008B52800089C
:1000D000B5280008C9260008B5280008B52800087A
:1000E000B5280008B5280008B52800080000000061
:1000F0000000000000000000000000000000000000
:0C01000000000000000000005FF808F1A3
:1001100010B5054C237833B9044B13B10448AFF341
:1001200000800123237010BDF801002000000000B2
:100130008C9A000808B5034B1BB103490348AFF381
:10014000008008BD00000000FC0100208C9A00081F
:10015000034613F8012B002AFBD1181A0138704707
:1001600081F0004102E000BF83F0004330B54FEA68
:1001700041044FEA430594EA050F08BF90EA020FD5
:100180001FBF54EA000C55EA020C7FEA645C7FEA68
:10019000655C00F0E2804FEA5454D4EB5555B8BF8B
:1001A0006D420CDD2C4480EA020281EA030382EAFC
:1001B000000083EA010180EA020281EA0303362D8E
:1001C00088BF30BD11F0004F4FEA01314FF4801C61
:1001D0004CEA113102D0404261EB410113F0004F73
:1001E0004FEA03334CEA133302D0524263EB43032A
:1001F00094EA050F00F0A780A4F10104D5F1200EC8
:100200000DDB02FA0EFC22FA05F2801841F1000122
:1002100003FA0EF2801843FA05F359410EE0A5F1F6
:1002200020050EF1200E012A03FA0EFC28BF4CF027
:10023000020C43FA05F3C01851EBE37101F00045DD
:1002400007D54FF0000EDCF1000C7EEB00006EEBEA
:100250000101B1F5801F1BD3B1F5001F0CD3490874
:100260005FEA30004FEA3C0C04F101044FEA4452CB
:1002700012F5800F80F09A80BCF1004F08BF5FEA52
:10028000500C50F1000041EB045141EA050130BD32
:100290005FEA4C0C404141EB0101013C28BFB1F544
:1002A000801FE9D291F0000F04BF01460020B1FA8F
:1002B00081F308BF2033A3F10B03B3F120020CDA62
:1002C0000C3208DD02F1140CC2F10C0201FA0CF040
:1002D00021FA02F10CE002F11402D8BFC2F1200CA5
:1002E00001FA02F120FA0CFCDCBF41EA0C0190405B
:1002F000E41AA2BF01EB0451294330BD6FEA0404A4
:100300001F3C1CDA0C340EDC04F11404C4F120028E
:1003100020FA04F001FA02F340EA030021FA04F3A0
:1003200045EA030130BDC4F10C04C4F1200220FAF7
:1003300002F001FA04F340EA0300294630BD21FA35
:1003400004F0294630BD94F0000F83F4801306BFFB
:1003500081F480110134013D4EE77FEA645C18BFEF
:100360007FEA655C29D094EA050F08BF90EA020F86
:1003700005D054EA000C04BF1946104630BD91EA7E
:10038000030F1EBF0021002030BD5FEA545C05D181
:100390004000494128BF41F0004130BD14F58004C0
:1003A0003CBF01F5801130BD01F0004545F0FE4134
:1003B00041F470014FF0000030BD7FEA645C1ABF69
:1003C000194610467FEA655C1CBF0B46024650EAA0
:1003D000013406BF52EA033591EA030F41F40021CC
:1003E00030BD00BF90F0000F04BF0021704730B552
:1003F0004FF4806404F132044FF000054FF0000127
:1004000050E700BF90F0000F04BF0021704730B5E7
:100410004FF4806404F1320410F0004548BF4042BC
:100420004FF000013EE700BF42004FEAE2014FEA11
:1004300031014FEA02701FBF12F07F4393F07F4FEC
:1004400081F06051704732F07F4208BF704793F0EF
:100450007F4F04BF41F40021704730B54FF4607402
:1004600001F0004521F000411CE700BF50EA010205
:1004700008BF704730B54FF000050AE050EA0102AE
:1004800008BF704730B511F0004502D5404261EB1E
:1004900041014FF4806404F132045FEA915C3FF45F
:1004A000D8AE4FF003025FEADC0C18BF03325FEAFC
:1004B000DC0C18BF033202EBDC02C2F1200300FAAD
:1004C00003FC20FA02F001FA03FE40EA0E0021FAD2
:1004D00002F11444BDE600BF70B54FF0FF0C4CF4C0
:1004E000E06C1CEA11541DBF1CEA135594EA0C0F72
:1004F00095EA0C0F00F0DEF82C4481EA030621EAAD
:100500004C5123EA4C5350EA013518BF52EA0335E7
:1005100041F4801143F4801338D0A0FB02CE4FF099
:100520000005E1FB02E506F00042E0FB03E54FF0C9
:100530000006E1FB03569CF0000F18BF4EF0010EC1
:10054000A4F1FF04B6F5007F64F5407404D25FEABD
:100550004E0E6D4146EB060642EAC62141EA555170
:100560004FEAC52040EA5E504FEACE2EB4F1FD0CB2
:1005700088BFBCF5E06F1ED8BEF1004F08BF5FEA30
:10058000500E50F1000041EB045170BD06F00046E2
:1005900046EA010140EA020081EA0301B4EB5C048F
:1005A000C2BFD4EB0C0541EA045170BD41F4801187
:1005B0004FF0000E013C00F3AB8014F1360FDEBFAC
:1005C000002001F0004170BDC4F10004203C35DA88
:1005D0000C341BDC04F11404C4F1200500FA05F30B
:1005E00020FA04F001FA05F240EA020001F00042AC
:1005F00021F0004110EBD37021FA04F642EB060122
:100600005EEA430E08BF20EAD37070BDC4F10C044B
:10061000C4F1200500FA04F320FA05F001FA04F20F
:1006200040EA020001F0004110EBD37041F10001FB
:100630005EEA430E08BF20EAD37070BDC4F1200506
:1006400000FA05F24EEA020E20FA04F301FA05F26E
:1006500043EA020321FA04F001F0004121FA04F216
:1006600020EA020000EBD3705EEA430E08BF20EAE6
:10067000D37070BD94F0000F0FD101F00046400020
:1006800041EB010111F4801F08BF013CF7D041EAA2
:10069000060195F0000F18BF704703F000465200A6
:1006A00043EB030313F4801F08BF013DF7D043EA77
:1006B0000603704794EA0C0F0CEA135518BF95EA2D
:1006C0000C0F0CD050EA410618BF52EA4306D1D1B4
:1006D00081EA030101F000414FF0000070BD50EAD3
:1006E000410606BF1046194652EA430619D094EA5D
:1006F0000C0F02D150EA013613D195EA0C0F05D147
:1007000052EA03361CBF104619460AD181EA03019A
:1007100001F0004141F0FE4141F470014FF0000052
:1007200070BD41F0FE4141F4780170BD70B54FF0ED
:10073000FF0C4CF4E06C1CEA11541DBF1CEA13556D
:1007400094EA0C0F95EA0C0F00F0A7F8A4EB05044F
:1007500081EA030E52EA03354FEA013100F0888046
:100760004FEA03334FF0805545EA131343EA12630F
:100770004FEA022245EA111545EA10654FEA0026C4
:100780000EF000419D4208BF964244F1FD0404F57D
:10079000407402D25B084FEA3202B61A65EB0305D9
:1007A0005B084FEA32024FF480104FF4002CB6EB96
:1007B000020E75EB030E22BFB61A754640EA0C0016
:1007C0005B084FEA3202B6EB020E75EB030E22BF56
:1007D000B61A754640EA5C005B084FEA3202B6EB97
:1007E000020E75EB030E22BFB61A754640EA9C0056
:1007F0005B084FEA3202B6EB020E75EB030E22BF26
:10080000B61A754640EADC0055EA060E18D04FEAE3
:10081000051545EA16754FEA06164FEAC30343EA83
:1008200052734FEAC2025FEA1C1CC0D111F4801F50
:100830000BD141EA00014FF000004FF0004CB6E749
:1008400011F4801F04BF01430020B4F1FD0C88BFE8
:10085000BCF5E06F3FF6AFAEB5EB030C04BFB6EBF3
:10086000020C5FEA500C50F1000041EB045170BDE6
:100870000EF0004E4EEA113114EB5C04C2BFD4EB13
:100880000C0541EA045170BD41F480114FF0000E97
:10089000013C90E645EA060E8DE60CEA135594EA13
:1008A0000C0F08BF95EA0C0F3FF43BAF94EA0C0F16
:1008B0000AD150EA01347FF434AF95EA0C0F7FF48B
:1008C00025AF104619462CE795EA0C0F06D152EADF
:1008D00003353FF4FDAE1046194622E750EA4106C3
:1008E00018BF52EA43067FF4C5AE50EA41047FF4D4
:1008F0000DAF52EA43057FF4EBAE12E74FF0FF3C39
:1009000006E000BF4FF0010C02E000BF4FF0010C09
:100910004DF804CD4FEA410C7FEA6C5C4FEA430C82
:1009200018BF7FEA6C5C1BD001B050EA410C0CBFD1
:1009300052EA430C91EA030F02BF90EA020F002033
:10094000704710F1000F91EA030F58BF994208BF9A
:1009500090422CBFD8176FEAE37040F00100704757
:100960004FEA410C7FEA6C5C02D150EA013C07D1AE
:100970004FEA430C7FEA6C5CD6D152EA033CD3D0F9
:100980005DF8040B704700BF8446104662468C46F3
:100990001946634600E000BF01B5FFF7B7FF002826
:1009A00048BF10F1000F01BD4DF808EDFFF7F4FF4F
:1009B0000CBF012000205DF808FB00BF4DF808EDDA
:1009C000FFF7EAFF34BF012000205DF808FB00BFFD
:1009D0004DF808EDFFF7E0FF94BF012000205DF81F
:1009E00008FB00BF4DF808EDFFF7CEFF94BF0120D4
:1009F00000205DF808FB00BF4DF808EDFFF7C4FFCD
:100A000034BF012000205DF808FB00BF4FEA410C15
:100A10007FEA6C5C02D150EA013C0AD14FEA430CF8
:100A20007FEA6C5C02D152EA033C02D14FF0000035
:100A300070474FF0010070474FEA410212F5001273
:100A400015D211D56FF47873B3EB625212D94FEA15
:100A5000C12343F0004343EA505311F0004F23FAFF
:100A600002F018BF404270474FF00000704750EA54
:100A7000013005D111F0004008BF6FF00040704711
:100A80004FF00000704700BF80F0004002E000BF60
:100A900081F0004142001FBF5FEA410392EA030F69
:100AA0007FEA226C7FEA236C6AD04FEA1262D2EBB3
:100AB0001363C1BFD218414048404140B8BF5B42B8
:100AC000192B88BF704710F0004F40F4000020F051
:100AD0007F4018BF404211F0004F41F4000121F067
:100AE0007F4118BF494292EA030F3FD0A2F10102B1
:100AF00041FA03FC10EB0C00C3F1200301FA03F1EF
:100B000000F0004302D5494260EB4000B0F5000F11
:100B100013D3B0F1807F06D340084FEA310102F1D0
:100B20000102FE2A51D2B1F1004F40EBC25008BF82
:100B300020F0010040EA03007047490040EB00004C
:100B4000013A28BFB0F5000FEDD2B0FA80FCACF14D
:100B5000080CB2EB0C0200FA0CF0AABF00EBC2507A
:100B600052421843BCBFD0401843704792F0000F68
:100B700081F4000106BF80F400000132013BB5E7BB
:100B80004FEA41037FEA226C18BF7FEA236C21D031
:100B900092EA030F04D092F0000F08BF0846704796
:100BA00090EA010F1CBF0020704712F07F4F04D164
:100BB000400028BF40F00040704712F100723CBF77
:100BC00000F50000704700F0004343F0FE4040F4A1
:100BD000000070477FEA226216BF08467FEA23635F
:100BE0000146420206BF5FEA412390EA010F40F44A
:100BF000800070474FF0000304E000BF10F0004396
:100C000048BF40425FEA000C08BF704743F096437C
:100C100001464FF000001CE050EA010208BF704797
:100C20004FF000030AE000BF50EA010208BF70471E
:100C300011F0004302D5404261EB41015FEA010C33
:100C400002BF84460146002043F0B64308BFA3F12B
:100C50008053A3F50003BCFA8CF2083AA3EBC2530D
:100C600010DB01FA02FC634400FA02FCC2F120022C
:100C7000BCF1004F20FA02F243EB020008BF20F063
:100C80000100704702F1200201FA02FCC2F12002C9
:100C900050EA4C0021FA02F243EB020008BF20EABE
:100CA000DC7070474FF0FF0C1CEAD0521EBF1CEAEC
:100CB000D15392EA0C0F93EA0C0F6FD01A4480EADA
:100CC000010C400218BF5FEA41211ED04FF00063C3
:100CD00043EA501043EA5111A0FB01310CF00040EF
:100CE000B1F5000F3EBF490041EAD3715B0040EA15
:100CF000010062F17F02FD2A1DD8B3F1004F40EBE5
:100D0000C25008BF20F00100704790F0000F0CF0B7
:100D1000004C08BF49024CEA502040EA51207F3A7B
:100D2000C2BFD2F1FF0340EAC250704740F4000056
:100D30004FF00003013A5DDC12F1190FDCBF00F047
:100D400000407047C2F10002410021FA02F1C2F1F5
:100D5000200200FA02FC5FEA310040F1000053EA91
:100D60004C0308BF20EADC70704792F0000F00F0DF
:100D7000004C02BF400010F4000F013AF9D040EAE5
:100D80000C0093F0000F01F0004C02BF490011F479
:100D9000000F013BF9D041EA0C018FE70CEAD15377
:100DA00092EA0C0F18BF93EA0C0F0AD030F0004CF7
:100DB00018BF31F0004CD8D180EA010000F00040AB
:100DC000704790F0000F17BF90F0004F084691F069
:100DD000000F91F0004F14D092EA0C0F01D14202A3
:100DE0000FD193EA0C0F03D14B0218BF084608D16C
:100DF00080EA010000F0004040F0FE4040F40000B6
:100E0000704740F0FE4040F4400070474FF0FF0C48
:100E10001CEAD0521EBF1CEAD15392EA0C0F93EA8F
:100E20000C0F69D0A2EB030280EA010C49024FEAE1
:100E3000402037D04FF0805343EA111143EA10139A
:100E40000CF000408B4238BF5B0042F17D024FF452
:100E5000000C8B4224BF5B1A40EA0C00B3EB510F2D
:100E600024BFA3EB510340EA5C00B3EB910F24BF16
:100E7000A3EB910340EA9C00B3EBD10F24BFA3EB9B
:100E8000D10340EADC001B0118BF5FEA1C1CE0D163
:100E9000FD2A3FF650AF8B4240EBC25008BF20F016
:100EA000010070470CF0004C4CEA50207F32C2BF6A
:100EB000D2F1FF0340EAC250704740F400004FF007
:100EC0000003013A37E792F0000F00F0004C02BF38
:100ED000400010F4000F013AF9D040EA0C0093F002
:100EE000000F01F0004C02BF490011F4000F013B5C
:100EF000F9D041EA0C0195E70CEAD15392EA0C0FC4
:100F000008D142027FF47DAF93EA0C0F7FF470AFFB
:100F1000084676E793EA0C0F04D14B023FF44CAF3E
:100F200008466EE730F0004C18BF31F0004CCAD1D3
:100F300030F000427FF45CAF31F000437FF43CAF0F
:100F40005FE700BF4FF0FF3C06E000BF4FF0010C31
:100F500002E000BF4FF0010C4DF804CD4FEA400213
:100F60004FEA41037FEA226C18BF7FEA236C11D05D
:100F700001B052EA530C18BF90EA010F58BFB2EB10
:100F8000030088BFC81738BF6FEAE17018BF40F090
:100F9000010070477FEA226C02D15FEA402C05D144
:100FA0007FEA236CE4D15FEA412CE1D05DF8040BC9
:100FB000704700BF844608466146FFE70FB5FFF75C
:100FC000C9FF002848BF10F1000F0FBD4DF808ED14
:100FD000FFF7F4FF0CBF012000205DF808FB00BF05
:100FE0004DF808EDFFF7EAFF34BF012000205DF85F
:100FF00008FB00BF4DF808EDFFF7E0FF94BF0120AC
:1010000000205DF808FB00BF4DF808EDFFF7D2FFA8
:1010100094BF012000205DF808FB00BF4DF808EDEB
:10102000FFF7C8FF34BF012000205DF808FB00BFB8
:1010300080B586B000AF786007F1080300221A601F
:101040005A609A60DA607B689B88BB600123FB6012
:1010500002237B617B681B6807F108021146184672
:1010600002F076FB00BF1837BD4680BD80B586B064
:1010700000AF786007F1080300221A605A609A6096
:10108000DA607B689B88BB600023FB6000233B61C8
:101090007B681B6807F108021146184602F058FBEE
:1010A00000BF1837BD4680BD80B483B000AF786004
:1010B0000B467B807B689B681B6800225A6200BFDE
:1010C0007B689B681B685A6A7B889A42F8D300BF8A
:1010D00000BF0C37BD4680BC704780B582B000AF02
:1010E00078607868FFF7A4FF7B6818687B689B8846
:1010F0000122194602F0C7FC00BF0837BD4680BD7B
:1011000080B588B000AF786039600023BB600023F1
:101110003B730023FB770723BB770023BB61786811
:10112000FFF786FF7B6818687B689B88002219465A
:1011300002F0A9FC022001F021FC7B6818687B68A2
:101140009B880122194602F09EFC7868FFF78EFF0B
:101150001E217868FFF7A8FF0023BB610CE0BB6984
:101160005A1CBA6142F21072934201D90123C2E0C3
:1011700001217868FFF798FF7B681A687B689B8875
:101180001946104602F068FC0346012BE7D0002305
:10119000BB610CE0BB695A1CBA6142F21072934207
:1011A00001D90223A7E001217868FFF77DFF7B6862
:1011B0001A687B689B881946104602F04DFC03466E
:1011C000002BE7D00023BB610CE0BB695A1CBA615D
:1011D00042F21072934201D903238CE00121786816
:1011E000FFF762FF7B681A687B689B881946104688
:1011F00002F032FC0346012BE7D000237B6146E07E
:1012000000BF7B681A687B689B881946104602F00D
:1012100023FC0346002BF4D07B689B681B680022EC
:101220005A6200BF7B681A687B689B881946104623
:1012300002F012FC0346012BF4D07B689B681B680C
:101240005B6A3B823B8A282B12D9FB7F20333B44CD
:1012500013F8183C5AB2BB7F012101FA03F35BB2C9
:1012600013435AB2FB7FD2B220333B4403F8182C0D
:10127000BB7F002B05D10723BB77FB7F0133FB77B7
:1012800002E0BB7F013BBB777B6901337B617B69FC
:10129000272BB5DD3A7A7B7A1344DAB2BB7A134452
:1012A000DAB2FB7A1344FB743B7BFA7C9A4201D09E
:1012B000042320E03B7A1B027A7A13431846FFF797
:1012C0009DFC03460E491846FFF7ECFC03461A4600
:1012D0003B685A60BB7A1B02FA7A13431846FFF741
:1012E0008DFC034606491846FFF7DCFC03461A4608
:1012F0003B681A60002318462037BD4680BD00BFFA
:10130000CDCCCC3D80B586B002AF0346FB71FB79F6
:1013100023F00F03FB73FB791B01BB73FB7B43F0D3
:101320000C03DBB23B72FB7B43F00803DBB27B7246
:10133000BB7B43F00C03DBB2BB72BB7B43F0080307
:10134000DBB2FB7207F108026423009304234E21F1
:10135000034802F0F5FC00BF1037BD4680BD00BF5A
:10136000F802002080B586B002AF0346FB71FB791E
:1013700023F00F03FB73FB791B01BB73FB7B43F073
:101380000D03DBB23B72FB7B43F00903DBB27B72E4
:10139000BB7B43F00D03DBB2BB72BB7B43F00903A5
:1013A000DBB2FB7207F108026423009304234E2191
:1013B000034802F0C5FC00BF1037BD4680BD00BF2A
:1013C000F802002080B582B000AF8020FFF79AFFBE
:1013D00000237B6005E02020FFF7C4FF7B6801331A
:1013E0007B607B68452BF6DD00BF00BF0837BD463C
:1013F00080BD80B582B000AF786039607B68002B1B
:1014000003D07B68012B05D009E03B6843F08003E3
:101410003B6004E03B6843F0C0033B6000BF3B68B7
:10142000DBB21846FFF76EFF00BF0837BD4680BD30
:1014300080B500AF322001F0A1FA3020FFF762FF43
:10144000052001F09BFA3020FFF75CFF012001F03E
:1014500095FA3020FFF756FF0A2001F08FFA20207E
:10146000FFF750FF0A2001F089FA2820FFF74AFF12
:10147000012001F083FA0820FFF744FF012001F06A
:101480007DFA0120FFF73EFF012001F077FA0120ED
:1014900001F074FA0620FFF735FF012001F06EFA23
:1014A0000C20FFF72FFF00BF80BD80B582B000AFDA
:1014B000786006E07B685A1C7A601B781846FFF754
:1014C00051FF7B681B78002BF4D100BF00BF0837A9
:1014D000BD4680BD80B483B000AF786039607B6862
:1014E0001B7B002B01D100231EE07B689B7A1A46F0
:1014F0007B689A5C3B681A707B689B7A5A1C0D4B20
:1015000083FB02139910D317C91A0B469B000B4497
:101510005B00D11ACAB27B689A727B681B7B013B65
:10152000DAB27B681A73012318460C37BD4680BCBB
:10153000704700BF6766666680B483B000AF7860AE
:101540000B46FB707B681B7B092B01D900231DE038
:101550007B68DB7A19467B68FA785A547B68DB7AB9
:101560005A1C0D4B83FB02139910D317C91A0B4653
:101570009B000B445B00D11ACAB27B68DA727B68AD
:101580001B7B0133DAB27B681A73012318460C37D0
:10159000BD4680BC704700BF6766666680B483B096
:1015A00000AF78607B6800229A727B680022DA7252
:1015B0007B6800221A7300BF0C37BD4680BC7047A1
:1015C00080B582B000AF78607B681B68324A934276
:1015D0005ED1324B1B680133304A1360304B1B68BD
:1015E00001332F4A13602E4B1B682E4A1268934218
:1015F00006D32B4B00221A6001212B48FFF79CFFDA
:101600002A4B1B680133294A1360284B1B68284A60
:101610001268934206D3254B00221A600221224809
:10162000FFF78AFF234B1B680133224A1360214BCB
:101630001B68214A1268934206D31E4B00221A608F
:1016400003211948FFF778FF1C4B1B6801331B4A25
:1016500013601A4B1B681A4A1268934206D3174B41
:1016600000221A6004211048FFF766FF154B1B6823
:101670000133144A1360134B1B68134A12689342D8
:1016800006D3104B00221A6005210748FFF754FFCC
:1016900000BF0837BD4680BD000400402004002084
:1016A0002404002010000020E8020020280400206C
:1016B000140000202C04002018000020300400201A
:1016C0001C000020340400202000002080B584B0DD
:1016D00000AF78600023FB600023BB6007F10803C4
:1016E00007F10C023049786805F0E2FB0346022B53
:1016F00057D1FB68002B02DDFB68052B04DD2B496D
:101700002B4800F009FD4CE0BB68312B03DDBB68C2
:10171000284A934204DD2849254800F0FDFC40E0BA
:1017200072B600BFFB68013B042B30D801A252F80F
:1017300023F000BF49170008571700086517000875
:101740007317000881170008BB681C4A13601C4B04
:1017500000221A601CE0BB681A4A13601A4B002270
:101760001A6015E0BB68194A1360194B00221A6011
:101770000EE0BB68174A1360174B00221A6007E09F
:10178000BB68164A1360164B00221A6000E000BFC7
:1017900062B600BFFA68BB681249054800F0BCFC9D
:1017A00000BF1037BD4680BDA89A0008B49A000853
:1017B000A0020020C0270900C49A000810000020E1
:1017C0002404002014000020280400201800002019
:1017D0002C0400201C0000203004002020000020E9
:1017E00034040020E09A000880B584B000AF78602F
:1017F0007B681B681B4A93422FD11B4B1B78FB73E2
:101800001A4B1B78DBB2002B22D1FB7B2E2B0DD188
:10181000174B1B88002B1BD0154B1B881A46154BEA
:1018200000219954114B01221A7011E0104B1B88B2
:101830007E2B0AD80E4B1B885A1C91B20C4A118081
:1018400019460C4AFB7B535402E0094B00221A80D4
:1018500001220549084804F05EF800BF1037BD4674
:1018600080BD00BF00380140980300201E04002006
:101870001C0400209C030020A002002080B500AFC3
:101880000A490B4800F048FC0A490B48FFF738FCAE
:101890000346002B04D10949054800F03DFC03E054
:1018A0000749034800F038FC00BF80BDF49A0008E7
:1018B000A00200202002002014020020089B000843
:1018C000209B000880B500AF0549064800F024FCC5
:1018D000054800F035FD0346044A136000BF80BD93
:1018E000349B0008A0020020000000209403002088
:1018F0002DE9B04F8AB008AF3E493F4800F00CFCDC
:101900003E4B1B681846FEF78FFD04460D463C4BC8
:101910001B681846FEF788FD02460B46CDE90023FA
:1019200022462B463749344800F0F6FB364B1B68FD
:101930001846FFF763F9034634491846FFF766FA7D
:1019400003461846FEF770FDC7E90001304B1B68DF
:101950001846FFF753F903462C491846FFF756FA85
:1019600003461846FEF760FD04460D46294B1B68EA
:101970001846FFF743F9034624491846FFF746FA8D
:1019800003461846FEF750FD80468946224B1B68E9
:101990001846FFF733F903461C491846FFF736FA95
:1019A00003461846FEF740FD82468B461B4B1B68DC
:1019B0001846FFF723F9034614491846FFF726FA9D
:1019C00003461846FEF730FD02460B46CDE90623D6
:1019D000CDE904ABCDE90289CDE90045D7E9002383
:1019E0000F49054800F098FB00BF0837BD46BDE829
:1019F000B08F00BF489B0008A002002020020020FA
:101A0000940300205C9B00081000002000007A4432
:101A100014000020180000201C00002020000020DE
:101A20007C9B00082DE9B04F94B008AF4F49504857
:101A300000F072FB4F4B1B681846FEF7F5FC04469E
:101A40000D464D4B1B681846FEF7EEFC02460B4652
:101A500007F11C00CDE9002322462B46474905F03B
:101A600007FA474B1B681846FFF7C8F80346454975
:101A70001846FFF7CBF903461846FEF7D5FCC7E931
:101A80000001414B1B681846FFF7B8F803463D4973
:101A90001846FFF7BBF903461846FEF7C5FC044697
:101AA0000D463A4B1B681846FFF7A8F80346354920
:101AB0001846FFF7ABF903461846FEF7B5FC80461B
:101AC0008946334B1B681846FFF798F803462D49A3
:101AD0001846FFF79BF903461846FEF7A5FC824619
:101AE0008B462C4B1B681846FFF788F803462549A0
:101AF0001846FFF78BF903461846FEF795FC024699
:101B00000B4607F10800CDE90623CDE904ABCDE98A
:101B10000289CDE90045D7E900231F4905F0A8F95E
:101B200000210020FFF765FC1C48FFF7BEFC0021E8
:101B30000020FFF75EFC07F11C031846FFF7B5FC19
:101B400000210120FFF755FC1448FFF7AEFC0021EF
:101B50000120FFF74EFC07F108031846FFF7A5FC2C
:101B600000BF3037BD46BDE8B08F00BFA89B00085E
:101B7000A00200202002002094030020BC9B00084B
:101B80001000002000007A441400002018000020FB
:101B90001C00002020000020D09B0008E89B0008CB
:101BA00080B500AF0B490C4800F0B6FA0B4B1B7820
:101BB000DBB2002B0CD00A49074800F0ADFA074B06
:101BC00000221A700748FFF781FD074B00221A8098
:101BD00000BF80BDFC9B0008A00200201E04002066
:101BE000109C00089C0300201C040020B0B586B0A7
:101BF00000AF00F061FE00F085F800F00FFA00F091
:101C0000E3F900F047F900F017F900F0D7F800F019
:101C10008DF9304803F0B8F92F48FFF7BFFC2F4883
:101C200003F0FCF92E4B2F4A1A602D4B02229A80AA
:101C30002B4B284A9A602A48FFF74FFAFFF7F8FB28
:101C4000FFF7C0FB00210020FFF7D3FB2648FFF77A
:101C50002CFC264B3C1D1D460FCD0FC42B6823606A
:101C6000234B00221A80234B00221A7001222249A2
:101C7000224803F050FE224800F04EFBFB1C1946A0
:101C80001548FFF727FC0346002BF7D0FB78013BF4
:101C9000042B1CD801A252F823F000BFB11C00088D
:101CA000B71C0008BD1C0008C31C0008C91C0008A4
:101CB000FFF7E4FD0CE0FFF705FE09E0FFF718FE73
:101CC00006E0FFF7AFFE03E0FFF76AFF00E000BFAA
:101CD000D4E700BF28020020E80200204C030020C7
:101CE00014020020000801402C9C0008349C0008CD
:101CF0001C0400201E04002098030020A0020020E5
:101D00000000002080B594B000AF07F1280328221E
:101D10000021184605F074F907F1140300221A6037
:101D20005A609A60DA601A613B1D00221A605A609C
:101D30009A60DA600123BB624FF48033FB620023B8
:101D40003B630123BB6302237B644FF48033BB649A
:101D50004FF4E013FB6407F12803184602F048FB38
:101D60000346002B01D000F0D1F90F237B61022341
:101D7000BB610023FB614FF480633B6200237B6205
:101D800007F114030221184602F0B4FD0346002BAC
:101D900001D000F0BBF902237B604FF40043FB60ED
:101DA0003B1D184602F034FF0346002B01D000F023
:101DB000ADF900BF5037BD4680BD000080B584B08E
:101DC00000AF3B1D00221A605A609A60184B194AF6
:101DD0001A60174B00229A60154B00221A73144B9D
:101DE00000221A75124B4FF46022DA61104B002268
:101DF0005A600F4B01221A610D4800F0E3FD0346C3
:101E0000002B01D000F082F900237B600123BB602E
:101E10000423FB603B1D1946054801F097F8034673
:101E2000002B01D000F072F900BF1037BD4680BD15
:101E3000700200200024014080B500AF124B134A0D
:101E40001A60114B124A5A600F4B00229A600E4BD7
:101E50000022DA600C4B4FF480421A610A4B0022D8
:101E60005A61094B00229A61074B0022DA61064B46
:101E700000221A62044801F01FFE0346002B01D025
:101E800000F044F900BF80BDF8020020005400407B
:101E9000A086010080B586B000AF07F108030022DC
:101EA0001A605A609A60DA603B4600221A605A60F3
:101EB0001D4B4FF080421A601B4B47225A601A4B51
:101EC00000229A60184B4FF6FF72DA60164B002220
:101ED0001A61154B00229A61134803F005F8034676
:101EE000002B01D000F012F94FF48053BB6007F1D2
:101EF000080319460C4803F0D3F90346002B01D020
:101F000000F004F900233B6000237B603B46194648
:101F1000054803F0B5FB0346002B01D000F0F6F8AE
:101F200000BF1837BD4680BD2802002080B586B0AE
:101F300000AF07F1080300221A605A609A60DA6065
:101F40003B4600221A605A601D4B1E4A1A601C4B09
:101F500041F61F425A601A4B00229A60184B092220
:101F6000DA60174B00221A61154B00229A6114485F
:101F700002F0BAFF0346002B01D000F0C7F84FF47F
:101F80008053BB6007F1080319460D4803F088F938
:101F90000346002B01D000F0B9F800233B6000237A
:101FA0007B603B461946064803F06AFB0346002B5C
:101FB00001D000F0ABF800BF1837BD4680BD00BFB0
:101FC0004C0300200004004080B500AF114B124AC2
:101FD0001A60104B4FF4E1325A600E4B00229A60A7
:101FE0000C4B0022DA600B4B00221A61094B0C22C9
:101FF0005A61084B00229A61064B0022DA610548BB
:1020000003F0AEFB0346002B01D000F07FF800BFC9
:1020100080BD00BFA00200200038014080B588B01C
:1020200000AF07F1100300221A605A609A60DA606C
:10203000334B9B69324A43F010039361304B9B69E9
:1020400003F01003FB60FB682D4B9B692C4A43F0A7
:10205000200393612A4B9B6903F02003BB60BB689C
:10206000274B9B69264A43F004039361244B9B69E9
:1020700003F004037B607B68214B9B69204A43F09B
:10208000080393611E4B9B6903F008033B603B68A8
:1020900000224FF400511B4801F0F5FC01220221FF
:1020A000194801F0F0FC4FF400533B6101237B61C0
:1020B0000023BB610223FB6107F11003194611489D
:1020C00001F046FB02233B6101237B610023BB61DE
:1020D0000223FB6107F1100319460B4801F038FB9E
:1020E00004233B6103237B610023BB6107F11003E1
:1020F0001946054801F02CFB00BF2037BD4680BDC6
:1021000000100240001001400008014080B400AF00
:1021100072B600BF00BFFDE70EB480B59FB000AF40
:10212000786007F18803FB6007F11000FB68D7F8BF
:102130008420642104F056FF78677B6F002B0CDD50
:102140007B6F642B01D964237B677B6F9AB207F1A5
:1021500010010A23786803F053FB00BF7C37BD46AB
:10216000BDE8804003B0704780B58AB000AF7860AA
:102170000B467B807B682C4A93420CD12B4B9B698E
:102180002A4A43F004039361284B9B6903F004033C
:102190007B617B6931E07B68254A93420CD1234BFC
:1021A0009B69224A43F008039361204B9B6903F02B
:1021B00008033B613B6920E07B681E4A93420CD1D7
:1021C0001A4B9B69194A43F010039361174B9B69A3
:1021D00003F01003FB60FB680FE07B68164A934234
:1021E0000BD1124B9B69114A43F0200393610F4BB3
:1021F0009B6903F02003BB60BB6807F11803002252
:102200001A605A609A60DA607B88BB610323FB61C5
:1022100000233B6207F118031946786801F098FA29
:1022200000BF2837BD4680BD0008014000100240B5
:10223000000C0140001001400014014080B588B03E
:1022400000AF78607B681B682F4A93420CD12F4BFC
:102250009B692E4A43F4007393612C4B9B6903F4F2
:1022600000733B613B6910E07B681B68284A93421E
:102270000BD1264B9B69254A43F480639361234B22
:102280009B6903F48063FB60FB687B681B68214AE1
:102290001360204B00229A601E4B00221A731D4BC4
:1022A00000221A751B4B4FF46022DA61194B002291
:1022B0005A60184B01221A61164800F083FB03464E
:1022C000002B01D000BFFDE707F1140300221A60C4
:1022D0005A609A607B685B687B610123BB6106235F
:1022E000FB6107F1140319460A4800F02FFE03466C
:1022F000002B01D000BFFDE7064800F0BBFF00BF88
:102300002037BD4680BD00BF0024014000100240C0
:10231000002801403804002080B582B000AF78600A
:102320007B689A687B689B8919461046FFF71CFFFB
:102330007868FFF783FF00BF0837BD4680BD000007
:1023400080B586B000AF7860234800F013FC0A2106
:10235000214800F0E9FC0346002B04D01E4800F0A1
:10236000B7FC1E4B34E01C4800F0E4FD03467B82C2
:10237000194800F0ADFC7B8A1846FEF73BFC03468B
:1023800017491846FEF784FB0346FB60154BBB60FC
:10239000B968F868FEF73AFD034613491846FEF798
:1023A00081FC03467B6110497869FEF737FE0346DE
:1023B000002B01D00C4B7B614FF000017869FEF7D8
:1023C0000FFE0346002B02D04FF000037B617B69B8
:1023D00018461837BD4680BD38040020000080BF75
:1023E00000404E450080BBC40000C84280B485B0A8
:1023F00000AF154B9B69144A43F001039361124BE4
:102400009B6903F00103BB60BB680F4BDB690E4A9D
:1024100043F08053D3610C4BDB6903F080537B6046
:102420007B680A4B5B68FB60FB6823F0E063FB6042
:10243000FB6843F00073FB60044AFB68536000BF15
:102440001437BD4680BC70470010024000000140B8
:1024500080B588B000AF786007F1100300221A60E1
:102460005A609A60DA607B681B68144A934221D1F3
:10247000134B9B69124A43F400739361104B9B69A1
:1024800003F40073FB60FB680D4B9B690C4A43F03F
:10249000040393610A4B9B6903F00403BB60BB68B0
:1024A00001233B6103237B6107F1100319460548B3
:1024B00001F04EF900BF2037BD4680BD0024014029
:1024C000001002400008014080B588B000AF78607D
:1024D00007F1100300221A605A609A60DA607B6884
:1024E0001B68154A934223D1144B9B69134A43F04E
:1024F00008039361114B9B6903F00803FB60FB68C1
:10250000C0233B6112237B610323FB6107F11003AE
:1025100019460B4801F01CF9084BDB69074A43F4E4
:102520000013D361054BDB6903F40013BB60BB6888
:1025300000BF2037BD4680BD00540040001002405F
:10254000000C014080B584B000AF78607B681B68E8
:10255000B3F1804F0CD1154BDB69144A43F00103F2
:10256000D361124BDB6903F00103FB60FB6818E0E9
:102570007B681B680E4A934213D10C4BDB690B4AF4
:1025800043F00203D361094BDB6903F00203BB6034
:10259000BB68002203211D2000F0F1FF1D2001F087
:1025A0000AF800BF1037BD4680BD00BF00100240D2
:1025B0000004004080B588B000AF786007F11003D8
:1025C00000221A605A609A60DA607B681B68204AB1
:1025D000934239D11F4B9B691E4A43F48043936158
:1025E0001C4B9B6903F48043FB60FB68194B9B69A0
:1025F000184A43F004039361164B9B6903F00403EC
:10260000BB60BB684FF400733B6102237B61032313
:10261000FB6107F1100319460F4801F099F84FF4D8
:1026200080633B6100237B610023BB6107F11003E2
:102630001946094801F08CF800220021252000F0FD
:102640009EFF252000F0B7FF00BF2037BD4680BDAC
:1026500000380140001002400008014080B400AF83
:1026600000BFFDE780B400AF00BFFDE780B400AF5E
:1026700000BFFDE780B400AF00BFFDE780B400AF4E
:1026800000BFFDE780B400AF00BFBD4680BC70470F
:1026900080B400AF00BFBD4680BC704780B400AFBF
:1026A00000BFBD4680BC704780B500AF00F04AF95E
:1026B00000BF80BD80B500AF024802F001FD00BF41
:1026C00080BD00BF4C03002080B500AF024803F07E
:1026D00047F900BF80BD00BFA002002080B400AF5A
:1026E00001231846BD4680BC704780B582B000AF5C
:1026F0007860396004F0D6FC034616221A604FF069
:10270000FF3318460837BD4680BD80B582B000AFA4
:1027100078604FF0FF317868FFF7E7FF00BFFDE713
:1027200080B586B000AFF860B9607A6000237B6145
:102730000AE0AFF300800146BB685A1CBA60CAB217
:102740001A707B6901337B617A697B689A42F0DB9E
:102750007B6818461837BD4680BD80B586B000AF8F
:10276000F860B9607A6000237B6109E0BB685A1C9D
:10277000BA601B781846AFF300807B6901337B6138
:102780007A697B689A42F1DB7B6818461837BD4648
:1027900080BD80B483B000AF78604FF0FF3318463F
:1027A0000C37BD4680BC704780B483B000AF786002
:1027B00039603B684FF400525A60002318460C37CA
:1027C000BD4680BC704780B483B000AF7860012301
:1027D00018460C37BD4680BC704780B485B000AF4A
:1027E000F860B9607A60002318461437BD4680BC93
:1027F0007047000080B586B000AF7860144A154B72
:10280000D31A7B617B693B61134B1B68002B02D1A0
:10281000114B124A1A60104B1A687B6813443A69CC
:102820009A4207D204F03EFC03460C221A604FF095
:10283000FF3309E0084B1B68FB60074B1A687B6895
:102840001344054A1360FB6818461837BD4680BD1F
:10285000005000200004000068040020C005002093
:1028600080B400AF00BFBD4680BC7047FFF7F8FFE3
:102870000B480C490C4A002302E0D458C4500433DE
:10288000C4188C42F9D3094A094C002301E01360B3
:102890000432A242FBD304F00BFCFFF7A7F9704708
:1028A00000000020F80100202CA00008F801002002
:1028B000BC050020FEE7000080B500AF084B1B6898
:1028C000074A43F010031360032000F04DFE0F2071
:1028D00000F008F8FFF78AFD0023184680BD00BF0E
:1028E0000020024080B582B000AF7860124B1A68B9
:1028F000124B1B7819464FF47A73B3FBF1F3B2FB1A
:10290000F3F3184600F065FE0346002B01D00123C7
:102910000EE07B680F2B0AD8002279684FF0FF3059
:1029200000F02DFE064A7B681360002300E00123BF
:1029300018460837BD4680BD240000202C0000202A
:102940002800002080B400AF054B1B781A46054BC9
:102950001B681344034A136000BFBD4680BC704728
:102960002C0000206C04002080B400AF024B1B68D8
:102970001846BD4680BC70476C04002080B584B00A
:1029800000AF7860FFF7F0FFB8607B68FB60FB6822
:10299000B3F1FF3F05D00A4B1B781A46FB6813447E
:1029A000FB6000BFFFF7E0FF0246BB68D31AFA687E
:1029B0009A42F7D800BF00BF1037BD4680BD00BFA8
:1029C0002C00002080B586B000AF78600023FB7536
:1029D00000233B610023BB600023FB607B68002B6E
:1029E00001D10123BEE07B689B68002B7B689B6A5A
:1029F000002B09D17B680022DA627B68002283F811
:102A000024207868FFF724FD786800F0F1FB034686
:102A1000FB757B689B6A03F01003002B40F09980E4
:102A2000FB7D002B40F095807B689B6A23F48853E4
:102A300023F0020343F002027B689A627B685A68C3
:102A40007B68DB691A437B681B7B5B001343BA68B6
:102A50001343BB607B689B68B3F5807F03D07B68C2
:102A60009B68012B02D14FF4807300E000233A6988
:102A700013433B617B681B7D012B19D17B681B7B5A
:102A8000002B09D17B689B69013B5A033B691343C7
:102A900043F400633B610BE07B689B6A43F02002D8
:102AA0007B689A627B68DB6A43F001027B68DA62CA
:102AB0007B681B685B6823F469417B681B683A6923
:102AC0000A435A607B681B689A68284B13407A68EF
:102AD0001268B9680B4393607B689B68B3F5807F8D
:102AE00003D07B689B68012B04D17B681B69013B89
:102AF0001B05FB607B681B68DB6A23F470017B6845
:102B00001B68FA680A43DA627B681B689A68184B8C
:102B10001340BA689A420BD17B680022DA627B6864
:102B20009B6A23F0030343F001027B689A6218E07A
:102B30007B689B6A23F0120343F010027B689A6261
:102B40007B68DB6A43F001027B68DA620123FB7574
:102B500007E07B689B6A43F010027B689A6201235E
:102B6000FB75FB7D18461837BD4680BDFDF7E1FFBC
:102B7000FE0E1FFF80B584B000AF78600023FB73AA
:102B80007B6893F82430012B01D1022398E07B6805
:102B9000012283F82420786800F0D0FA0346FB7302
:102BA000FB7B002B40F087807B689B6A23F440739B
:102BB00023F0010343F480727B689A627B681B6890
:102BC000414A934205D1414B5B6803F47023002BCB
:102BD00015D17B689B6A23F480127B689A627B68BC
:102BE0001B685B6803F48063002B26D07B689B6ABC
:102BF00023F4405343F480527B689A621DE07B6863
:102C00009B6A43F480127B689A627B681B682F4A38
:102C1000934204D07B681B682B4A93420DD12B4B07
:102C20005B6803F48063002B07D07B689B6A23F406
:102C3000405343F480527B689A627B689B6A03F43A
:102C40008053002B06D07B68DB6A23F006027B688A
:102C5000DA6202E07B680022DA627B68002283F895
:102C600024207B681B686FF002021A607B681B6877
:102C70009B6803F46023B3F5602F13D17B681B6856
:102C8000114A934205D1114B5B6803F47023002B6A
:102C900008D17B681B689A687B681B6842F4A002B5
:102CA0009A600CE07B681B689A687B681B6842F43A
:102CB00080129A6003E07B68002283F82420FB7B6B
:102CC00018461037BD4680BD002801400024014051
:102CD00080B584B000AF78600023FB737B6893F805
:102CE0002430012B01D102231AE07B68012283F8F2
:102CF0002420786800F07CFA0346FB73FB7B002BF2
:102D000009D17B689B6A23F4885323F0010343F0C5
:102D100001027B689A627B68002283F82420FB7B97
:102D200018461037BD4680BD90B587B000AF7860BB
:102D3000396000237B610023FB6000233B61FFF7C8
:102D400013FE78617B681B689B6803F48073002B1B
:102D50000BD07B689B6A43F020027B689A627B6899
:102D6000002283F824200123D3E07B681B685B6882
:102D700003F48073002B31D17B681B68DB6A03F49A
:102D80007003002B2AD121E03B68B3F1FF3F1DD037
:102D90003B68002B07D0FFF7E7FD02467B69D31A9B
:102DA0003A689A4212D27B681B681B6803F00203E0
:102DB000002B0BD17B689B6A43F004027B689A620C
:102DC0007B68002283F824200323A2E07B681B6831
:102DD0001B6803F00203002BD6D070E04F4B1C6839
:102DE000022001F0CBFF0346B4FBF3F27B681B68C3
:102DF00019694B4B0B40002B18D17B681B68D968B5
:102E0000484B0B40002B11D17B681B681969464B5E
:102E10000B40002B08D17B681B68D968434B0B40E3
:102E2000002B01D1142320E029231EE07B681B68BE
:102E300019693D4B0B40002B06D17B681B68D96894
:102E40003A4B0B40002B0DD07B681B681969384B3F
:102E50000B40002B08D17B681B68D968344B0B40B2
:102E6000002B01D1542300E0FC2302FB03F33B6160
:102E700021E03B68B3F1FF3F1AD03B68002B07D03D
:102E8000FFF772FD02467B69D31A3A689A420FD265
:102E9000FB683A699A420BD97B689B6A43F004024B
:102EA0007B689A627B68002283F82420032330E049
:102EB000FB680133FB60FB683A699A42D9D87B68AA
:102EC0001B686FF012021A607B689B6A43F4007201
:102ED0007B689A627B681B689B6803F46023B3F588
:102EE000602F15D17B681B7B002B11D17B689B6AFF
:102EF00023F480727B689A627B689B6A03F4805338
:102F0000002B05D17B689B6A43F001027B689A62C3
:102F1000002318461C37BD4690BD00BF240000208A
:102F2000244992242449920092244912922449006F
:102F30004992240080B483B000AF78607B681B683E
:102F4000DB6C18460C37BD4680BC704780B485B03A
:102F500000AF786039600023FB730023BB607B689F
:102F600093F82430012B01D10223DCE07B6801229D
:102F700083F824203B685B68062B1CD87B681B68A1
:102F8000596B3B685A6813469B001344053B1F224C
:102F900002FA03F3DB4319403B6818683B685A6840
:102FA00013469B001344053B00FA03F27B681B6841
:102FB0000A435A633CE03B685B680C2B1CD87B6877
:102FC0001B68196B3B685A6813469B001344233BEC
:102FD0001F2202FA03F3DB4319403B6818683B6881
:102FE0005A6813469B001344233B00FA03F27B68A4
:102FF0001B680A431A631BE07B681B68D96A3B683D
:103000005A6813469B001344413B1F2202FA03F304
:10301000DB4319403B6818683B685A6813469B00BD
:103020001344413B00FA03F27B681B680A43DA62EF
:103030003B681B68092B1CD97B681B68D9683B68F7
:103040001A6813465B0013441E3B072202FA03F37F
:10305000DB4319403B6898683B681A6813465B007D
:1030600013441E3B00FA03F27B681B680A43DA60D4
:1030700019E07B681B6819693B681A6813465B0096
:103080001344072202FA03F3DB4319403B689868B4
:103090003B681A6813465B00134400FA03F27B682E
:1030A0001B680A431A613B681B68102B03D03B68FE
:1030B0001B68112B32D17B681B681D4A934225D1B6
:1030C0007B681B689B6803F40003002B26D17B6898
:1030D0001B689A687B681B6842F400029A603B6830
:1030E0001B68102B1AD1134B1B68134AA2FB032336
:1030F0009A0C13469B0013445B00BB6002E0BB6864
:10310000013BBB60BB68002BF9D107E07B689B6A81
:1031100043F020027B689A620123FB737B680022E4
:1031200083F82420FB7B18461437BD4680BC7047CB
:10313000002401402400002083DE1B4380B584B0BE
:1031400000AF78600023FB600023BB607B681B68D6
:103150009B6803F00103012B40D07B681B689A68D1
:103160007B681B6842F001029A601F4B1B681F4A74
:10317000A2FB03239B0CBB6002E0BB68013BBB606E
:10318000BB68002BF9D1FFF7EFFBF8601FE0FFF7FA
:10319000EBFB0246FB68D31A022B18D97B681B682D
:1031A0009B6803F00103012B11D07B689B6A43F0FD
:1031B00010027B689A627B68DB6A43F001027B68DD
:1031C000DA627B68002283F82420012307E07B6811
:1031D0001B689B6803F00103012BD8D1002318461C
:1031E0001037BD4680BD00BF2400002083DE1B4396
:1031F00080B584B000AF78600023FB607B681B68FB
:103200009B6803F00103012B2ED17B681B689A6831
:103210007B681B6822F001029A60FFF7A5FBF8604B
:103220001BE0FFF7A1FB0246FB68D31A022B14D95F
:103230007B681B689B6803F00103012B0DD17B6841
:103240009B6A43F010027B689A627B68DB6A43F0FA
:1032500001027B68DA62012307E07B681B689B68D8
:1032600003F00103012BDCD0002318461037BD46C4
:1032700080BD000090B587B000AF78600023FB757B
:103280000023FB607B6893F82430012B01D10223DB
:1032900097E07B68012283F824207868FFF7A8FF75
:1032A0000346FB757868FFF749FF0346FB75FB7D16
:1032B000002B40F081807B689B6A23F4885323F0C5
:1032C000020343F002027B689A62404B1C680220B2
:1032D00001F054FD0346B4FBF3F35B00FB6002E036
:1032E000FB68013BFB60FB68002BF9D17B681B6826
:1032F0009A687B681B6842F008029A60FFF734FB0B
:1033000038611BE0FFF730FB02463B69D31A0A2BFA
:1033100014D97B681B689B6803F00803002B0DD051
:103320007B689B6A23F0120343F010027B689A6269
:103330007B68002283F82420012342E07B681B681D
:103340009B6803F00803002BDCD17B681B689A683C
:103350007B681B6842F004029A60FFF705FB386146
:103360001BE0FFF701FB02463B69D31A0A2B14D975
:103370007B681B689B6803F00403002B0DD07B68FF
:103380009B6A23F0120343F010027B689A627B6809
:10339000002283F82420012313E07B681B689B68CC
:1033A00003F00403002BDCD17B689B6A23F003034A
:1033B00043F001027B689A627B68002283F8242034
:1033C000FB7D18461C37BD4690BD00BF2400002081
:1033D00080B485B000AF78607B6803F00703FB60C2
:1033E0000C4BDB68BB60BA684FF6FF031340BB6051
:1033F000FB681A02BB68134343F0BF6343F4003316
:10340000BB60044ABB68D36000BF1437BD4680BCB4
:10341000704700BF00ED00E080B400AF044BDB68F4
:103420001B0A03F007031846BD4680BC704700BF67
:1034300000ED00E080B483B000AF0346FB7197F964
:103440000730002B0BDBFB7903F01F02064997F9CD
:1034500007305B09012000FA02F241F8232000BF87
:103460000C37BD4680BC704700E100E080B483B0FB
:1034700000AF03463960FB7197F90730002B0ADB78
:103480003B68DAB20C4997F907301201D2B20B440B
:1034900083F800230AE03B68DAB20849FB7903F0BD
:1034A0000F03043B1201D2B20B441A7600BF0C3753
:1034B000BD4680BC704700BF00E100E000ED00E0C9
:1034C00080B489B000AFF860B9607A60FB6803F03F
:1034D0000703FB61FB69C3F10703042B28BF042327
:1034E000BB61FB690433062B02D9FB69033B00E097
:1034F00000237B614FF0FF32BB6902FA03F3DA432A
:10350000BB681A407B699A404FF0FF317B6901FA32
:1035100003F3D9437B680B40134318462437BD4659
:1035200080BC704780B582B000AF78607B68013B9B
:10353000B3F1807F01D301230FE00A4A7B68013B8E
:1035400053600F214FF0FF30FFF790FF054B002233
:103550009A60044B07221A60002318460837BD46BC
:1035600080BD00BF10E000E080B582B000AF7860A1
:103570007868FFF72DFF00BF0837BD4680BD80B5D6
:1035800086B000AF0346B9607A60FB7300237B61AD
:10359000FFF742FF78617A68B9687869FFF790FFB2
:1035A000024697F90F3011461846FFF75FFF00BF3C
:1035B0001837BD4680BD80B582B000AF0346FB71B1
:1035C00097F907301846FFF735FF00BF0837BD46AB
:1035D00080BD80B582B000AF78607868FFF7A2FF49
:1035E000034618460837BD4680BD80B485B000AF9D
:1035F00078600023FB737B6893F82130DBB2022BE9
:1036000008D07B6804229A637B68002283F820201C
:10361000012320E07B681B681A687B681B6822F026
:103620000E021A607B681B681A687B681B6822F0B0
:1036300001021A607B681A6C7B68DB6B012101FA5E
:1036400002F25A607B68012283F821207B68002205
:1036500083F82020FB7B18461437BD4680BC70479A
:1036600080B584B000AF78600023FB737B6893F86B
:103670002130DBB2022B05D07B6804229A63012340
:10368000FB7351E07B681B681A687B681B6822F03B
:103690000E021A607B681B681A687B681B6822F040
:1036A00001021A607B681B68224A934229D07B681A
:1036B0001B68214A934222D07B681B681F4A9342B1
:1036C0001AD07B681B681E4A934212D07B681B6825
:1036D0001C4A93420AD07B681B681B4A934202D162
:1036E0004FF480130EE04FF080730BE04FF4803303
:1036F00008E04FF4805305E04FF4807302E010239C
:1037000000E00123114A53607B68012283F82120E5
:103710007B68002283F820207B685B6B002B03D042
:103720007B685B6B78689847FB7B18461037BD4613
:1037300080BD00BF080002401C0002403000024073
:1037400044000240580002406C0002400000024069
:1037500080B48BB000AF7860396000237B620023B7
:103760003B6269E101227B6A02FA03F3FB613B6879
:103770001B68FA691340BB61BA69FB699A4240F061
:1037800058813B685B689A4A93425ED0984A93425C
:1037900075D8984A934258D0964A93426FD8964A21
:1037A000934252D0944A934269D8944A93424CD05F
:1037B000924A934263D8924A934246D0904A9342A7
:1037C0005DD8122B2AD8122B59D801A252F823F017
:1037D0004B380008253800083738000879380008C9
:1037E0007F3800087F3800087F3800087F380008DD
:1037F0007F3800087F3800087F3800087F380008CD
:103800007F3800087F3800087F3800087F380008BC
:103810007F3800082D38000841380008794A934263
:1038200013D02CE03B68DB683B6229E03B68DB6837
:1038300004333B6224E03B68DB6808333B621FE0F3
:103840003B68DB680C333B621AE03B689B68002BEB
:1038500002D104233B6213E03B689B68012B05D136
:1038600008233B627B68FA691A6109E008233B621E
:103870007B68FA695A6103E000233B6200E000BF05
:10388000BB69FF2B01D87B6801E07B6804337B6157
:10389000BB69FF2B02D87B6A9B0002E07B6A083B76
:1038A0009B003B617B691A680F213B6901FA03F3B6
:1038B000DB431A40396A3B6901FA03F31A437B6917
:1038C0001A603B685B6803F08053002B00F0B18006
:1038D0004D4B9B694C4A43F0010393614A4B9B69F2
:1038E00003F00103BB60BB68484A7B6A9B08023354
:1038F00052F82330FB607B6A03F003039B000F2226
:1039000002FA03F3DB43FA681340FB607B68404A2A
:10391000934213D07B683F4A93420DD07B683E4A66
:10392000934207D07B683D4A934201D1032306E0CE
:10393000042304E0022302E0012300E000237A6A6A
:1039400002F0030292009340FA681343FB602F4990
:103950007B6A9B080233FA6841F823203B685B6866
:1039600003F48013002B06D02D4B9A682C49BB69B9
:1039700013438B6006E02A4B9A68BB69DB432849F6
:1039800013408B603B685B6803F40013002B06D088
:10399000234BDA682249BB691343CB6006E0204B16
:1039A000DA68BB69DB431E491340CB603B685B6848
:1039B00003F40033002B06D0194B5A681849BB6931
:1039C00013434B6006E0164B5A68BB69DB4314494E
:1039D00013404B603B685B6803F48033002B21D0BD
:1039E0000F4B1A680E49BB6913430B6021E000BFFF
:1039F00000003210000031100000221000002110E1
:103A000000001210000011100010024000000140E0
:103A100000080140000C014000100140001401406A
:103A2000000401400B4B1A68BB69DB430949134092
:103A30000B607B6A01337B623B681A687B6A22FAFF
:103A400003F3002B7FF48EAE00BF00BF2C37BD46C2
:103A500080BC70470004014080B485B000AF78603E
:103A60000B467B807B689A687B881340002B02D0D2
:103A70000123FB7301E00023FB73FB7B1846143723
:103A8000BD4680BC704780B483B000AF78600B4601
:103A90007B8013467B707B78002B03D07A887B6811
:103AA0001A6103E07B881A047B681A6100BF0C3737
:103AB000BD4680BC7047000080B584B000AF786020
:103AC0007B68002B01D101232BE17B6893F83D300B
:103AD000DBB2002B06D17B68002283F83C2078689B
:103AE000FEF7F2FC7B68242283F83D207B681B688C
:103AF0001A687B681B6822F001021A607B681B68E9
:103B00001A687B681B6842F400421A607B681B6875
:103B10001A687B681B6822F400421A6001F032F8D0
:103B2000F8607B685B68814A934207D8FB68804AEB
:103B3000934294BF01230023DBB206E0FB687D4A79
:103B4000934294BF01230023DBB2002B01D0012359
:103B5000E7E0FB68784AA2FB03239B0CBB607B6811
:103B60001B685B6823F03F017B681B68BA680A43E7
:103B70005A607B681B681B6A23F03F017B685B68A7
:103B80006A4A934202D8BB68013309E0BB684FF42C
:103B9000967202FB03F3694AA2FB03239B090133DC
:103BA0007A6812680B4313627B681B68DB6923F435
:103BB0004F4222F0FF027B685B685C498B4219D858
:103BC000FB68591E7B685B685B00B1FBF3F3591C13
:103BD00040F6FC730B40002B0AD0FB68591E7B6833
:103BE0005B685B00B1FBF3F30133C3F30B0351E0FC
:103BF00004234FE07B689B68002B11D1FB68581EA3
:103C00007B6859680B465B000B44B0FBF3F3013350
:103C1000C3F30B03002B0CBF01230023DBB212E024
:103C2000FB68581E7B6859680B469B000B44990043
:103C30000B44B0FBF3F30133C3F30B03002B0CBFB6
:103C400001230023DBB2002B01D0012322E07B689B
:103C50009B68002B0ED1FB68581E7B6859680B4689
:103C60005B000B44B0FBF3F30133C3F30B0343F4EA
:103C700000430FE0FB68581E7B6859680B469B00A9
:103C80000B4499000B44B0FBF3F30133C3F30B0374
:103C900043F44043796809681343CB617B681B6830
:103CA0001B6823F0C0017B68DA697B681B6A1A43D2
:103CB0007B681B680A431A607B681B689B6823F457
:103CC000034323F0FF037A6811697A68D2681143CD
:103CD0007A6812680B4393607B681B68DB6823F08B
:103CE000FF017B685A697B689B691A437B681B6884
:103CF0000A43DA607B681B681A687B681B6842F0BD
:103D000001021A607B6800221A647B68202283F813
:103D10003D207B6800221A637B68002283F83E20E6
:103D2000002318461037BD4680BD00BFA0860100A5
:103D30007F841E00FF083D0083DE1B43D34D6210CD
:103D400080B588B002AFF8607A601A460B467B8176
:103D500013463B81FEF708FE7861FB6893F83D301F
:103D6000DBB2202B40F0E0807B6900931923012215
:103D70007049F86800F064F90346002B01D0022373
:103D8000D3E0FB6893F83C30012B01D10223CCE057
:103D9000FB68012283F83C20FB681B681B6803F06A
:103DA0000103012B07D0FB681B681A68FB681B68BE
:103DB00042F001021A60FB681B681A68FB681B6806
:103DC00022F400621A60FB68212283F83D20FB6820
:103DD000102283F83E20FB6800221A64FB687A6890
:103DE0005A62FB683A895A85FB685B8D9AB2FB6818
:103DF0001A85FB68504ADA6279897B693A6AF86801
:103E000000F09CF80346002B01D001238DE0002335
:103E10003B61FB681B685B693B61FB681B689B69D6
:103E20003B613B6966E07A69396AF86800F022FA1A
:103E30000346002B0DD0FB681B6C042B07D1FB68DD
:103E40001B681A68FB681B6842F400721A60012341
:103E50006BE0FB685B6A1A78FB681B681A61FB6899
:103E60005B6A5A1CFB685A62FB685B8D9BB2013B24
:103E70009AB2FB685A85FB681B8D013B9AB2FB68BE
:103E80001A85FB681B685B6903F00403042B1BD1D4
:103E9000FB681B8D002B17D0FB685B6A1A78FB68E8
:103EA0001B681A61FB685B6A5A1CFB685A62FB68F4
:103EB0005B8D9BB2013B9AB2FB685A85FB681B8DF8
:103EC000013B9AB2FB681A857A69396AF86800F092
:103ED00019FA0346002B0DD0FB681B6C042B07D18D
:103EE000FB681B681A68FB681B6842F400721A6062
:103EF00001231AE0FB681B8D002B94D1FB681B6823
:103F00001A68FB681B6842F400721A60FB68202282
:103F100083F83D20FB68002283F83E20FB680022E6
:103F200083F83C20002300E0022318461837BD46E2
:103F300080BD00BF020010000000FFFF80B588B008
:103F400002AFF8607A603B600B467B81FB68DB6AFE
:103F50007B617B69082B06D07B69012B03D07B69D1
:103F600013F5803F08D1FB681B681A68FB681B6863
:103F700042F480721A600BE0FB681B6B122B07D1B6
:103F8000FB681B681A68FB681B6842F480721A6041
:103F90003B6800937B6800224FF00111F86800F045
:103FA0004FF80346002B0DD0FB681B681B6803F419
:103FB0008073B3F5807F03D1FB684FF400721A64FD
:103FC000032335E0FB681B69B3F5804F08D17B897B
:103FD000DBB21A46FB681B6802F0FE021A611BE0A6
:103FE0007B89DB11DBB203F00603DBB263F00F0366
:103FF000DAB2FB681B681A613B687A680E49F86898
:1040000000F098F80346002B01D0012310E07B89D3
:10401000DAB2FB681B681A613B687A680749F8687E
:1040200000F088F80346002B01D0012300E00023B4
:1040300018461837BD4680BD080001000200010087
:1040400080B584B000AFF860B9603B601346FB7187
:1040500048E03B68B3F1FF3F44D0FEF785FC0246E1
:10406000BB69D31A3A689A4202D33B68002B39D114
:10407000BB681B0CDBB2012B0DD1FB681B685B69B5
:10408000DA43BB6813409BB2002B0CBF0123002313
:10409000DBB21A460CE0FB681B689B69DA43BB681D
:1040A00013409BB2002B0CBF01230023DBB21A4646
:1040B000FB799A4216D1FB6800221A63FB68202222
:1040C00083F83D20FB68002283F83E20FB681B6CD0
:1040D00043F02002FB681A64FB68002283F83C204E
:1040E000012323E0BB681B0CDBB2012B0DD1FB6865
:1040F0001B685B69DA43BB6813409BB2002B0CBFA3
:1041000001230023DBB21A460CE0FB681B689B69A5
:10411000DA43BB6813409BB2002B0CBF0123002382
:10412000DBB21A46FB799A4293D000231846103727
:10413000BD4680BD80B584B000AFF860B9607A60DC
:104140003B6071E0FB681B685B6903F48063B3F557
:10415000806F23D1FB681B681A68FB681B6842F4F8
:1041600000721A60FB681B686FF480625A61FB681A
:1041700000221A63FB68202283F83D20FB6800229E
:1041800083F83E20FB681B6C43F00402FB681A6452
:10419000FB68002283F83C20012367E07B68B3F1D1
:1041A000FF3F41D0FEF7E0FB02463B68D31A7A6836
:1041B0009A4202D37B68002B36D1BB681B0CDBB262
:1041C000012B0CD1FB681B685B69DA43BB681340A9
:1041D0009BB2002B14BF01230023DBB20BE0FB6872
:1041E0001B689B69DA43BB6813409BB2002B14BF6A
:1041F00001230023DBB2002B16D0FB6800221A63D8
:10420000FB68202283F83D20FB68002283F83E20D3
:10421000FB681B6C43F02002FB681A64FB680022F9
:1042200083F83C20012321E0BB681B0CDBB2012B8F
:104230000CD1FB681B685B69DA43BB6813409BB217
:10424000002B14BF01230023DBB20BE0FB681B68CB
:104250009B69DA43BB6813409BB2002B14BF012358
:104260000023DBB2002B7FF46DAF0023184610371C
:10427000BD4680BD80B584B000AFF860B9607A609B
:1042800034E0F86800F086F80346002B01D00123E3
:1042900034E0BB68B3F1FF3F28D0FEF765FB024670
:1042A0007B68D31ABA689A4202D3BB68002B1DD12F
:1042B000FB681B685B6903F08003802B16D0FB68EA
:1042C00000221A63FB68202283F83D20FB6800224D
:1042D00083F83E20FB681B6C43F02002FB681A64E5
:1042E000FB68002283F83C20012307E0FB681B6881
:1042F0005B6903F08003802BC3D10023184610377D
:10430000BD4680BD80B584B000AFF860B9607A600A
:1043100034E0F86800F03EF80346002B01D001239A
:1043200034E0BB68B3F1FF3F28D0FEF71DFB024627
:104330007B68D31ABA689A4202D3BB68002B1DD19E
:10434000FB681B685B6903F00403042B16D0FB6851
:1043500000221A63FB68202283F83D20FB680022BC
:1043600083F83E20FB681B6C43F02002FB681A6454
:10437000FB68002283F83C20012307E0FB681B68F0
:104380005B6903F00403042BC3D1002318461037E4
:10439000BD4680BD80B483B000AF78607B681B6889
:1043A0005B6903F48063B3F5806F1BD17B681B6886
:1043B0006FF480625A617B6800221A637B68202256
:1043C00083F83D207B68002283F83E207B681B6CCD
:1043D00043F004027B681A647B68002283F83C2067
:1043E000012300E0002318460C37BD4680BC70470F
:1043F00080B586B000AF78607B68002B01D10123C7
:1044000072E27B681B6803F00103002B00F08780D9
:10441000924B5B6803F00C03042B0CD08F4B5B6852
:1044200003F00C03082B12D18C4B5B6803F4803330
:10443000B3F5803F0BD1894B1B6803F40033002B8D
:104440006CD07B685B68002B68D101234CE27B68F1
:104450005B68B3F5803F06D1804B1B687F4A43F40D
:10446000803313602EE07B685B68002B0CD17B4BA4
:104470001B687A4A23F480331360784B1B68774AB1
:1044800023F4802313601DE07B685B68B3F5A02FE5
:104490000CD1724B1B68714A43F4802313606F4B3D
:1044A0001B686E4A43F4803313600BE06B4B1B6850
:1044B0006A4A23F480331360684B1B68674A23F40D
:1044C000802313607B685B68002B13D0FEF74CFAE7
:1044D000386108E0FEF748FA02463B69D31A642BBC
:1044E00001D9032300E25D4B1B6803F40033002B6A
:1044F000F0D014E0FEF738FA386108E0FEF734FA3D
:1045000002463B69D31A642B01D90323ECE1534BD8
:104510001B6803F40033002BF0D100E000BF7B6880
:104520001B6803F00203002B63D04C4B5B6803F065
:104530000C03002B0BD0494B5B6803F00C03082BDA
:104540001CD1464B5B6803F48033002B16D1434BE0
:104550001B6803F00203002B05D07B681B69012B4D
:1045600001D00123C0E13D4B1B6823F0F8027B68BA
:104570005B69DB00394913430B603AE07B681B69D8
:10458000002B20D0364B01221A60FEF7EDF938617E
:1045900008E0FEF7E9F902463B69D31A022B01D97C
:1045A0000323A1E12D4B1B6803F00203002BF0D085
:1045B0002A4B1B6823F0F8027B685B69DB00274904
:1045C00013430B6015E0264B00221A60FEF7CCF96E
:1045D000386108E0FEF7C8F902463B69D31A022B9E
:1045E00001D9032380E11D4B1B6803F00203002B5C
:1045F000F0D17B681B6803F00803002B3AD07B687E
:104600009B69002B19D0174B01221A60FEF7ACF9F9
:10461000386108E0FEF7A8F902463B69D31A022B7D
:1046200001D9032360E10D4B5B6A03F00203002B09
:10463000F0D0012000F0CEFA1CE00A4B00221A60F4
:10464000FEF792F938610FE0FEF78EF902463B69FA
:10465000D31A022B08D9032346E100BF0010024001
:104660000000424280044242924B5B6A03F0020324
:10467000002BE9D17B681B6803F00403002B00F0DA
:10468000A6800023FB758B4BDB6903F08053002B66
:104690000DD1884BDB69874A43F08053D361854B4A
:1046A000DB6903F08053BB60BB680123FB75824B61
:1046B0001B6803F48073002B18D17F4B1B687E4A64
:1046C00043F480731360FEF74FF9386108E0FEF79A
:1046D0004BF902463B69D31A642B01D9032303E14A
:1046E000754B1B6803F48073002BF0D07B68DB688C
:1046F000012B06D16F4B1B6A6E4A43F00103136214
:104700002DE07B68DB68002B0CD16A4B1B6A694A81
:1047100023F001031362674B1B6A664A23F004030C
:1047200013621CE07B68DB68052B0CD1614B1B6AB4
:10473000604A43F0040313625E4B1B6A5D4A43F018
:10474000010313620BE05B4B1B6A5A4A23F001031F
:104750001362584B1B6A574A23F0040313627B68A9
:10476000DB68002B15D0FEF7FFF838610AE0FEF792
:10477000FBF802463B69D31A41F28832934201D9D1
:104780000323B1E04B4B1B6A03F00203002BEED076
:1047900014E0FEF7E9F838610AE0FEF7E5F80246B2
:1047A0003B69D31A41F28832934201D903239BE03B
:1047B000404B1B6A03F00203002BEED1FB7D012B63
:1047C00005D13C4BDB693B4A23F08053D3617B68C6
:1047D000DB69002B00F08780364B5B6803F00C032D
:1047E000082B61D07B68DB69022B46D1334B00225A
:1047F0001A60FEF7B9F8386108E0FEF7B5F802462E
:104800003B69D31A022B01D903236DE0294B1B68A6
:1048100003F00073002BF0D17B681B6AB3F5803F77
:1048200008D1244B5B6823F400327B689B682149E4
:1048300013434B601F4B5B6823F474127B68196A47
:104840007B685B6A0B431B4913434B601B4B012284
:104850001A60FEF789F8386108E0FEF785F802462D
:104860003B69D31A022B01D903233DE0114B1B688E
:1048700003F00073002BF0D035E0104B00221A60DB
:10488000FEF772F8386108E0FEF76EF802463B6901
:10489000D31A022B01D9032326E0064B1B6803F031
:1048A0000073002BF0D11EE07B68DB69012B07D180
:1048B000012319E0001002400070004060004242F5
:1048C0000B4B5B68FB60FB6803F480327B681B6A00
:1048D0009A4206D1FB6803F470127B685B6A9A42C5
:1048E00001D0012300E0002318461837BD4680BDE3
:1048F0000010024080B584B000AF786039607B68FA
:10490000002B01D10123D0E06A4B1B6803F00703A1
:104910003A689A4210D9674B1B6823F00702654931
:104920003B6813430B60634B1B6803F007033A6853
:104930009A4201D00123B8E07B681B6803F00203B0
:10494000002B20D07B681B6803F00403002B05D0EC
:10495000594B5B68584A43F4E06353607B681B68BB
:1049600003F00803002B05D0534B5B68524A43F415
:1049700060535360504B5B6823F0F0027B689B6888
:104980004D4913434B607B681B6803F00103002B08
:1049900040D07B685B68012B07D1474B1B6803F451
:1049A0000033002B15D101237FE07B685B68022B6D
:1049B00007D1414B1B6803F00073002B09D1012381
:1049C00073E03D4B1B6803F00203002B01D1012370
:1049D0006BE0394B5B6823F003027B685B68364908
:1049E00013434B60FDF7C0FFF8600AE0FDF7BCFF22
:1049F0000246FB68D31A41F28832934201D903235D
:104A000053E02D4B5B6803F00C027B685B689B00F6
:104A10009A42EBD1274B1B6803F007033A689A428E
:104A200010D2244B1B6823F0070222493B68134332
:104A30000B60204B1B6803F007033A689A4201D0D1
:104A4000012332E07B681B6803F00403002B08D0CD
:104A5000194B5B6823F4E0627B68DB6816491343FB
:104A60004B607B681B6803F00803002B09D0124BD6
:104A70005B6823F460527B681B69DB000E491343BB
:104A80004B6000F021F802460B4B5B681B0903F0FA
:104A90000F030A49CB5C22FA03F3094A1360094B5E
:104AA0001B681846FDF71EFF002318461037BD4649
:104AB00080BD00BF0020024000100240549C00084E
:104AC000240000202800002080B487B000AF00231D
:104AD000FB600023BB6000237B6100237B6000231D
:104AE0003B611E4B5B68FB60FB6803F00C03042B0F
:104AF00002D0082B03D027E0194B3B6127E0FB686D
:104B00009B0C03F00F03174AD35C7B60FB6803F434
:104B10008033002B10D0114B5B685B0C03F001035A
:104B2000114AD35CBB607B680D4A03FB02F2BB6891
:104B3000B2FBF3F37B6104E07B680C4A02FB03F3F6
:104B40007B617B693B6102E0054B3B6100BF3B69D8
:104B500018461C37BD4680BC704700BF001002409D
:104B600000127A006C9C00087C9C000800093D0043
:104B700080B400AF024B1B681846BD4680BC70472E
:104B80002400002080B500AFFFF7F2FF0246054B7E
:104B90005B681B0A03F007030349CB5C22FA03F3AB
:104BA000184680BD00100240649C000880B500AF2C
:104BB000FFF7DEFF0246054B5B68DB0A03F00703E5
:104BC0000349CB5C22FA03F3184680BD0010024073
:104BD000649C000880B485B000AF78600A4B1B6805
:104BE0000A4AA2FB03235B0A7A6802FB03F3FB6019
:104BF00000BFFB685A1EFA60002BF9D100BF00BF4E
:104C00001437BD4680BC704724000020D34D62108D
:104C100080B586B000AF786000233B610023FB6065
:104C20007B681B6803F00103002B7DD00023FB751C
:104C30004F4BDB6903F08053002B0DD14C4BDB69EC
:104C40004B4A43F08053D361494BDB6903F08053F7
:104C5000BB60BB680123FB75464B1B6803F4807384
:104C6000002B18D1434B1B68424A43F480731360F6
:104C7000FDF77AFE386108E0FDF776FE02463B69F3
:104C8000D31A642B01D903236DE03A4B1B6803F45C
:104C90008073002BF0D0364B1B6A03F44073FB602B
:104CA000FB68002B2ED07B685B6803F44073FA68C6
:104CB0009A4227D02E4B1B6A23F44073FB602E4B85
:104CC00001221A602C4B00221A60294AFB681362E9
:104CD000FB6803F00103002B14D0FDF745FE38619B
:104CE0000AE0FDF741FE02463B69D31A41F28832E1
:104CF000934201D9032336E01D4B1B6A03F00203E4
:104D0000002BEED01A4B1B6A23F440727B685B6861
:104D1000174913430B62FB7D012B05D1144BDB6953
:104D2000134A23F08053D3617B681B6803F00203AE
:104D3000002B08D00E4B5B6823F440427B689B68D5
:104D40000B4913434B607B681B6803F01003002B77
:104D500008D0074B5B6823F480027B68DB6804495A
:104D600013434B60002318461837BD4680BD00BF73
:104D700000100240007000404004424280B588B0FC
:104D800000AF786000237B610023FB6100233B615F
:104D90000023FB600023BB617B68102B0AD07B687B
:104DA000102B00F28A807B68012B45D07B68022B98
:104DB00075D082E0464B5B68FB60454B1B6803F097
:104DC0008073002B7BD0FB689B0C03F00F03414AE0
:104DD000D35C3B61FB6803F48033002B15D03C4B64
:104DE0005B685B0C03F001033B4AD35C7B61FB68AF
:104DF00003F48033002B0DD0384A7B69B2FBF3F209
:104E00003B6902FB03F3FB6104E03B69344A02FBAC
:104E100003F3FB612E4B5B6803F48003B3F5800F53
:104E200002D1FB69BB614AE0FB695B002D4AA2FB32
:104E300003235B08BB6142E0254B1B6AFB60FB68F8
:104E400003F44073B3F5807F08D1FB6803F00203DD
:104E5000002B03D04FF40043BB611FE0FB6803F459
:104E60004073B3F5007F09D1194B5B6A03F002036D
:104E7000002B03D049F64043BB610FE0FB6803F40D
:104E80004073B3F5407F1CD1114B1B6803F4003312
:104E9000002B16D04FF22443BB6112E011E0FFF764
:104EA00085FE02460A4B5B689B0B03F0030301334C
:104EB0005B00B2FBF3F3BB6104E000BF02E000BFA4
:104EC00000E000BFBB6918462037BD4680BD00BF6B
:104ED00000100240809C0008909C000800127A009C
:104EE00000093D00ABAAAAAA80B582B000AF7860E5
:104EF0007B68002B01D1012341E07B6893F83D30B2
:104F0000DBB2002B06D17B68002283F83C20786856
:104F1000FDF718FB7B68022283F83D207B681A6846
:104F20007B6804331946104600F0A6FA7B6801221C
:104F300083F846207B68012283F83E207B680122AB
:104F400083F83F207B68012283F840207B680122A0
:104F500083F841207B68012283F842207B6801228C
:104F600083F843207B68012283F844207B68012278
:104F700083F845207B68012283F83D2000231846F2
:104F80000837BD4680BD000080B485B000AF7860B2
:104F90007B6893F83D30DBB2012B01D0012332E076
:104FA0007B68022283F83D207B681B68184A934285
:104FB0000ED07B681B68B3F1804F09D07B681B68FB
:104FC000144A934204D07B681B68134A934211D160
:104FD0007B681B689B6803F00703FB60FB68062B7C
:104FE00010D07B681B681A687B681B6842F001025E
:104FF0001A6007E07B681B681A687B681B6842F0D0
:1050000001021A60002318461437BD4680BC704761
:10501000002C0140000400400008004080B485B02E
:1050200000AF78607B6893F83D30DBB2012B01D094
:1050300001233AE07B68022283F83D207B681B68ED
:10504000DA687B681B6842F00102DA607B681B68E3
:10505000184A93420ED07B681B68B3F1804F09D089
:105060007B681B68144A934204D07B681B68134A10
:10507000934211D17B681B689B6803F00703FB60B8
:10508000FB68062B10D07B681B681A687B681B685E
:1050900042F001021A6007E07B681B681A687B68AF
:1050A0001B6842F001021A60002318461437BD46FF
:1050B00080BC7047002C0140000400400008004004
:1050C00080B584B000AF78607B681B68DB68FB60EC
:1050D0007B681B681B69BB60BB6803F00203002B85
:1050E00020D0FB6803F00203002B1BD07B681B68F9
:1050F0006FF002021A617B6801221A777B681B68D5
:105100009B6903F00303002B03D0786800F098F943
:1051100005E0786800F08BF9786800F09AF97B6810
:1051200000221A77BB6803F00403002B20D0FB6831
:1051300003F00403002B1BD07B681B686FF0040294
:105140001A617B6802221A777B681B689B6903F4EB
:105150004073002B03D0786800F072F905E078689E
:1051600000F065F9786800F074F97B6800221A771E
:10517000BB6803F00803002B20D0FB6803F0080392
:10518000002B1BD07B681B686FF008021A617B68DC
:1051900004221A777B681B68DB6903F00303002B8A
:1051A00003D0786800F04CF905E0786800F03FF92A
:1051B000786800F04EF97B6800221A77BB6803F02C
:1051C0001003002B20D0FB6803F01003002B1BD032
:1051D0007B681B686FF010021A617B6808221A77DF
:1051E0007B681B68DB6903F44073002B03D078688D
:1051F00000F026F905E0786800F019F9786800F009
:1052000028F97B6800221A77BB6803F00103002BA2
:105210000CD0FB6803F00103002B07D07B681B68F0
:105220006FF001021A617868FCF7CAF9BB6803F0F5
:105230008003002B0CD0FB6803F08003002B07D009
:105240007B681B686FF080021A61786800F07FFA53
:10525000BB6803F04003002B0CD0FB6803F0400355
:10526000002B07D07B681B686FF040021A617868DA
:1052700000F0F8F8BB6803F02003002B0CD0FB68AB
:1052800003F02003002B07D07B681B686FF020021F
:105290001A61786800F052FA00BF1037BD4680BD31
:1052A00080B584B000AF786039600023FB737B6801
:1052B00093F83C30012B01D10223B4E07B6801223A
:1052C00083F83C207B68022283F83D207B681B68C2
:1052D0009B68BB60BB6823F07703BB60BB6823F4AB
:1052E0007F43BB607B681B68BA689A603B681B6839
:1052F000B3F5005F3ED0B3F5005F00F28780B3F5F1
:10530000805F00F08680B3F5805F7FD8702B1AD065
:10531000702B7BD8602B50D0602B77D8502B3CD093
:10532000502B73D8402B58D0402B6FD8302B64D0E3
:10533000302B6BD8202B60D0202B67D8002B5CD073
:10534000102B5AD062E07B6818683B6899683B680C
:105350005A683B68DB6800F074F97B681B689B68DF
:10536000BB60BB6843F07703BB607B681B68BA68AF
:105370009A604FE07B6818683B6899683B685A6898
:105380003B68DB6800F05DF97B681B689A687B68A6
:105390001B6842F480429A603CE07B6818683B6876
:1053A00059683B68DB681A4600F0D4F87B681B68D4
:1053B0005021184600F02BF92CE07B6818683B68F8
:1053C00059683B68DB681A4600F0F2F87B681B6896
:1053D0006021184600F01BF91CE07B6818683B68E8
:1053E00059683B68DB681A4600F0B4F87B681B68B4
:1053F0004021184600F00BF90CE07B681A683B6806
:105400001B681946104600F002F903E00123FB7304
:1054100000E000BF7B68012283F83D207B6800220A
:1054200083F83C20FB7B18461037BD4680BD80B416
:1054300083B000AF786000BF0C37BD4680BC7047BA
:1054400080B483B000AF786000BF0C37BD4680BC2D
:10545000704780B483B000AF786000BF0C37BD46A2
:1054600080BC704780B483B000AF786000BF0C3759
:10547000BD4680BC7047000080B485B000AF786046
:1054800039607B681B68FB607B682F4A93420BD0B6
:105490007B68B3F1804F07D07B682C4A934203D0DE
:1054A0007B682B4A934208D1FB6823F07003FB60B2
:1054B0003B685B68FA681343FB607B68224A93424F
:1054C0000BD07B68B3F1804F07D07B681F4A9342B3
:1054D00003D07B681E4A934208D1FB6823F44073D3
:1054E000FB603B68DB68FA681343FB60FB6823F0F2
:1054F00080023B685B691343FB607B68FA681A6053
:105500003B689A687B68DA623B681A687B689A62D3
:105510007B680D4A934203D13B681A697B681A6322
:105520007B6801225A617B681B6903F00103002B31
:1055300005D07B681B6923F001027B681A6100BFFC
:105540001437BD4680BC7047002C01400004004069
:105550000008004080B487B000AFF860B9607A609E
:10556000FB681B6A7B61FB681B6A23F00102FB6816
:105570001A62FB689B693B613B6923F0F0033B6166
:105580007B681B013A6913433B617B6923F00A0383
:105590007B617A69BB6813437B61FB683A699A61F6
:1055A000FB687A691A6200BF1C37BD4680BC704731
:1055B00080B487B000AFF860B9607A60FB681B6A9E
:1055C0007B61FB681B6A23F01002FB681A62FB68B0
:1055D0009B693B613B6923F470433B617B681B0320
:1055E0003A6913433B617B6923F0A0037B61BB688D
:1055F0001B017A6913437B61FB683A699A61FB6816
:105600007A691A6200BF1C37BD4680BC704780B4FF
:1056100085B000AF786039607B689B68FB60FB6891
:1056200023F07003FB603A68FB68134343F0070301
:10563000FB607B68FA689A6000BF1437BD4680BC87
:10564000704780B487B000AFF860B9607A603B60A3
:10565000FB689B687B617B6923F47F437B613B68CC
:105660001A027B681A43BB6813437A6913437B6150
:10567000FB687A699A6000BF1C37BD4680BC7047E2
:1056800080B485B000AF786039607B6893F83C30B7
:10569000012B01D1022346E07B68012283F83C20E4
:1056A0007B68022283F83D207B681B685B68FB6097
:1056B0007B681B689B68BB60FB6823F07003FB6022
:1056C0003B681B68FA681343FB607B681B68FA68D9
:1056D0005A607B681B68164A93420ED07B681B6831
:1056E000B3F1804F09D07B681B68124A934204D003
:1056F0007B681B68104A93420CD1BB6823F080037F
:10570000BB603B685B68BA681343BB607B681B681F
:10571000BA689A607B68012283F83D207B6800228A
:1057200083F83C20002318461437BD4680BC7047E0
:10573000002C0140000400400008004080B483B009
:1057400000AF786000BF0C37BD4680BC704780B4A6
:1057500083B000AF786000BF0C37BD4680BC704797
:1057600080B582B000AF78607B68002B01D1012347
:1057700042E07B6893F84130DBB2002B06D17B68B6
:10578000002283F840207868FCF714FF7B6824220D
:1057900083F841207B681B68DA687B681B6822F409
:1057A0000052DA60786800F0B7FD7B681B681A6900
:1057B0007B681B6822F490421A617B681B685A69F7
:1057C0007B681B6822F02A025A617B681B68DA68D2
:1057D0007B681B6842F40052DA607B6800225A64DE
:1057E0007B68202283F841207B68202283F84220B6
:1057F0007B6800225A63002318460837BD4680BDE7
:1058000080B58AB002AFF860B9603B601346FB8098
:1058100000237B61FB6893F84130DBB2202B75D10C
:10582000BB68002B02D0FB88002B01D101236EE066
:10583000FB6800225A64FB68212283F84120FDF7AF
:1058400093F87861FB68FA889A84FB68FA88DA84AE
:10585000FB689B68B3F5805F08D1FB681B69002B70
:1058600004D10023FB61BB68BB6103E0BB68FB6143
:105870000023BB612EE03B6800937B6900228021FE
:10588000F86800F01CFB0346002B05D0FB682022C3
:1058900083F8412003233AE0FB69002B0BD1BB695D
:1058A0001B881A46FB681B68C2F308025A60BB6972
:1058B0000233BB6107E0FB691A78FB681B685A601A
:1058C000FB690133FB61FB68DB8C9BB2013B9AB245
:1058D000FB68DA84FB68DB8C9BB2002BCBD13B6886
:1058E00000937B6900224021F86800F0E8FA034643
:1058F000002B05D0FB68202283F84120032306E01B
:10590000FB68202283F84120002300E00223184690
:105910002037BD4680BD80B584B000AFF860B96067
:105920001346FB80FB6893F84230DBB2202B12D188
:10593000BB68002B02D0FB88002B01D101230BE0B8
:10594000FB6800221A63FB881A46B968F86800F001
:105950000FFB034600E0022318461037BD4680BD0A
:1059600080B5BAB000AF78607B681B681B68C7F869
:10597000E4307B681B68DB68C7F8E0307B681B6835
:105980005B69C7F8DC300023C7F8D8300023C7F8BC
:10599000D430D7F8E43003F00F03C7F8D830D7F885
:1059A000D830002B0FD1D7F8E43003F02003002BC0
:1059B00009D0D7F8E03003F02003002B03D078683B
:1059C00000F0ECFB5BE2D7F8D830002B00F0DE8073
:1059D000D7F8DC3003F00103002B06D1D7F8E03014
:1059E00003F49073002B00F0D180D7F8E43003F07B
:1059F0000103002B0BD0D7F8E03003F48073002BA9
:105A000005D07B685B6C43F001027B685A64D7F871
:105A1000E43003F00403002B0BD0D7F8DC3003F0A4
:105A20000103002B05D07B685B6C43F002027B68AE
:105A30005A64D7F8E43003F00203002B0BD0D7F8F8
:105A4000DC3003F00103002B05D07B685B6C43F076
:105A500004027B685A64D7F8E43003F00803002B93
:105A600011D0D7F8E03003F02003002B05D1D7F890
:105A7000DC3003F00103002B05D07B685B6C43F046
:105A800008027B685A647B685B6C002B00F0F28133
:105A9000D7F8E43003F02003002B08D0D7F8E0302B
:105AA00003F02003002B02D0786800F077FB7B68BE
:105AB0001B685B6903F04003002B14BF0123002324
:105AC000DBB2C7F8D4307B685B6C03F00803002BB3
:105AD00003D1D7F8D430002B4FD0786800F081FA8A
